:020000040000FA
:0600000078EF0FF0120082
:020006001200E6
:060008001BEF09F01200DD
:02000E001200DE
:06001000000000000000EA
:0100160000E9
:060018008EEF09F012005A
:02001E000200DE
:1000200016000000C60000000100000010000000E3
:08003000C00000000600000002
:0800380058EC05F0FB0EDBCFD4
:10004000F3FFDB06F35000090AE0A6EC05F0FA0E18
:1000500011EC06F0F3E1151CF1E1010E01D0000EE8
:1000600087EF05F058EC05F03B0EE12402E3E16870
:10007000E652E16E010EDB6A020EDB6AF90EDBCF9F
:10008000F6FFFA0EDBCFF7FFFB0EDBCFF8FF080021
:10009000F550DF6EDF5002E1ABEF04F0250EDF5CC0
:1000A00002E09EEF04F0030EDB6A040EDB6A050E2D
:1000B000DB6A060EDB6A070EDB6AC0EC04F02D0E6D
:1000C000DF5C0CE02B0EDF5C09E0200EDF5C06E05D
:1000D000230EDF5C03E0300EDF5C1AE1DF50300AF4
:1000E00014E0130A0FE0030A0AE00B0A05E0060A0F
:1000F000E4E1030EDB80E1D7030EDB82DED7030EE3
:10010000DB84DBD7030EDB86D8D7030EDB88D5D79D
:100110002A0EDF5C1BE1BCEC04F00AEC05F010E0F9
:10012000030EDB8008680968130EDBCF0DF0140E98
:10013000DBCF0EF047EC0AF0040E06C0DBFF03D065
:10014000130EF3EC04F0C0EC04F00BD0090EDB6AE4
:1001500061EC05F003E0D5EC05F0FAD7090EF3ECFD
:1001600004F0030EDBB0DB982E0EDF5C1BE1C0EC6D
:1001700004F02A0EDF5C0BE1BCEC04F00AEC05F0A5
:1001800003E1130E45EC05F0C0EC04F00BD0090EB2
:10019000DB6A61EC05F003E0D5EC05F0FAD7090E57
:1001A00045EC05F0680EDF5C07E1C0EC04F0680E7A
:1001B000DF5C1DE1030E18D0740EDF5C17E07A0ED1
:1001C000DF5C14E0480EDF5C06E0540EDF5C03E009
:1001D0005A0EDF5C02E1020E07D06C0EDF5C03E01A
:1001E0006A0EDF5C04E1010E98EC05F0C9DBDF501C
:1001F0006E0A01E17FD31E0A01E192D1200A01E1DA
:100200008FD13F0A01E149D11A0A01E146D10D0A15
:1002100001E143D1200A01E140D13A0A01E13DD197
:10022000200A01E13AD1260A01E135D10D0A01E1A6
:1002300032D11A0A01E1D9D0200A4AE0300A1FE07F
:10024000460A0EE0250A01E083D3D950F90FE96E82
:10025000FF0EDA20EA6E010EEE5E000EEE5AEE5A46
:10026000A6EC05F0250EE66E95DB03E1151C01E119
:1002700069D3A2EC05F001E26BD3DB2A69D3080E47
:10028000DB6A040EDB50010806E2040EDB046AECB4
:1002900005F0DB508BDB080EDB5009E0030EDB5072
:1002A000010B05E172DB01E04DD3080EDB6A64DB74
:1002B000EFCFDFFF1AEC06F003E1151C01E142D39A
:1002C000A2EC05F001E3DB2A60DB01E141D33AD384
:1002D000070EDB5002080FE1E6EC05F0030EADEC73
:1002E00005F00E0EEECFDBFF0F0EEECFDBFF100E94
:1002F000EECFDBFF20D0F70EDBCF17F0F80EDBCF11
:1003000018F0020E175E000E185AF70E17C0DBFF2A
:10031000F80E18C0DBFF17C0E9FF18C0EAFF9DEC1C
:1003200005F0166A0E0E14C0DBFF0F0E15C0DBFFC2
:10033000100E16C0DBFF0E0EDBCFE6FF0F0EDBCF7D
:10034000E6FF100EDBCFE6FF56EC0EF0E552E5526D
:10035000E552130E07C0DBFF140E08C0DBFF060ECC
:10036000DB5005E0130EE1EC05F001E26ADB05EC81
:1003700006F002E2130E37DBC8EC05F006E0040ECF
:10038000E1EC05F002E2050E2EDB030EDBB005D03A
:10039000FCDA01E0D7D2080EDB6A090EDB6A0E0E2A
:1003A000DBCFF6FF0F0EDBCFF7FF100EDBCFF8FF32
:1003B0000800F550DF6EDF5014E00BEC06F011E2A0
:1003C0001AEC06F003E1151C01E1BCD2BBDB01E332
:1003D000DB2A090EDB2AD9500E0FE96E000ECBDBAB
:1003E000E7D7D3DA01E1B4D2ADD2C6DA110EEECF3F
:1003F000DBFF120EEDCFDBFF110EDBCFE6FF120E9F
:10040000DBCFE6FF48EC0EF0E552E552130EF3CFDA
:10041000DBFF140EF4CFDBFF060EDB5004E0130EFF
:10042000D0DB01E20EDB05EC06F002E2130EDBDAB4
:10043000AFDB05E0040EC5DB02E2050ED4DA030EE5
:10044000DBB005D0A2DA01E07DD2080EDB6A090E2E
:10045000DB6A110EDBCFE9FF120EDBCFEAFFEFCF35
:10046000DFFFDF5014E0D7DB12E2E4DB03E1151C11
:1004700001E168D267DB01E3DB2A090EDB2A110EFA
:10048000DB2ADBCFE9FF120EE8E3DB2AE6D77DDAD1
:1004900001E15ED257D2030EDB8E070EDB0410E1C2
:1004A00095DB040E5ADB0A0EEECFDBFF0B0EEECF10
:1004B000DBFF0C0EEECFDBFF0D0EEECFDBFF6CD0C3
:1004C000070EDB5003082CE1030EDBAE0DD0B2DAD1
:1004D000020E76DAEFCF14F0156A166A176A14AEB8
:1004E00039D01568166835D0F70EDBCF15F0F80E49
:1004F000DBCF16F0020E155E000E165AF70E15C071
:10050000DBFFF80E16C0DBFF15C0E9FF16C0EAFFDF
:10051000EFCF14F00A0E14C0DBFF0B0EDB6A38D0ED
:10052000070EDB50020809E1030EDBAE04D059DBF5
:1005300016AE10D00ED055DB0DD0030EDBAE12D0B0
:1005400079DA020E3DDAF9DA166A176A15AE02D0C8
:1005500016681768E2DA0C0E16C0DBFF0D0E17C026
:10056000DBFF1AD0F70EDBCF16F0F80EDBCF17F05B
:10057000020E165E000E175AF70E16C0DBFFF80EBD
:1005800017C0DBFF16C0E9FF17C0EAFFD6DAC5DAED
:100590000C0EDB6A0D0EDB6A060EDB5005E1010E68
:1005A000F36E050EF3CFDBFF150EDB6A160EDB6A6A
:1005B000D950370F146E000EDA20156E390E14C0A4
:1005C000DBFF3A0E15C0DBFF380EDB6A080EDB6A74
:1005D0000A0EAEDADF50780A12E0200A10E0280A8C
:1005E0000CE0200A0AE03F0A06E00D0A02E0200AB9
:1005F00008E1020E05D0080E03D0080EDF26100E0B
:1006000097DA030EDBBE02D0DB92DB94DB50800B6B
:1006100024E08ADAD890030EEB50000A08E6000EB8
:10062000EE5C000EEE58000EEE58000EEE5815E28D
:1006300013DA0B680C680D680E68D9EC0DF00A0E21
:1006400002C0DBFF0B0E03C0DBFF0C0E04C0DBFFA0
:100650000D0E05C0DBFF2D0E08D0030EDBA202D06D
:100660002B0E03D0DBA408D0200EF36E170EF3CFB1
:10067000DBFF150EDB2A02D0170EDB6A050EDB50FE
:1006800003E1B7D901E189D03C0E146E1F0E156E3F
:10069000000E166E070EDBCF17F0186A196A1A6A79
:1006A00017C00BF018C00CF019C00DF01AC00EF0F6
:1006B000D3D9D9EC0EF014500224F36E1550032058
:1006C000F46E16500420F86EF4CFF7FFF3CFF6FF68
:1006D0000800090EF5CFDBFF580EDF5C0FE1610E5D
:1006E000F36E090E7BD90AE3200E146E090EDBCFE0
:1006F000E7FF1450E75E090EE7CFDBFF070EDBCF05
:1007000014F0156A166A176A0FDA14C00BF015C0D8
:100710000CF016C00DF017C00EF0EECF06F0EECFC5
:1007200007F0EECF08F0EFCF09F0D9EC0EF009C0DA
:10073000EDFF08C0EDFF07C0EDFF06C0EFFF390E6B
:10074000DBCFE9FFDB063A0EDBCFEAFF01E2DB0697
:10075000090EDBCFEFFF150EDB2A4BD995E1030E17
:10076000DBA61DD06F0EDF5C06E1C1D918E3150EC4
:10077000DB285BDA14D0780EDF5C09E0580EDF5C12
:1007800006E0620EDF5C03E0420EDF5C08E1020E71
:10079000F36E160EF3CFDBFF02D0150EDB6A030EED
:1007A000DB50100B0EE0040EDBCF14F0050EDB5017
:1007B000D880145406E2060EDB5003E1040EDB5031
:1007C00034DA95D90AE2050EDBCFE7FF150EDB50D0
:1007D000E75E050EE7CFDBFF02D0050EDB6A040EF5
:1007E000DBCF14F0160E45D9D880145414E2160E3F
:1007F000DBCFE6FF150EDBCFE6FF040EDBCFE6FF17
:10080000050EDB50E552E75CE552D880E754E5522F
:10081000D880E7545FD9030EDB50010B0BE1080EC3
:10082000DB5008E0B2D801E08DD0080EDB50BED816
:10083000080EDB6A170EDB5007E088D9170EF1D9D6
:1008400003E1151C01E17ED0160EDB5016E07ED9C7
:10085000300EE66E9FD802E1151C74E077D9DFCF29
:10086000E6FF5CEC0DF0E552E552E552F4CF15F0F1
:100870000001F31C02E1151C65E0050EDBCF14F04E
:10088000160EDB50D880145409E2050EDBCFE7FFCB
:10089000160EDB50E75E050EE7CFDBFF300EE66E8F
:1008A000050ECBD94FE1390EDB2ADBCFE9FF3A0E3B
:1008B00001E3DB2ADBCFEAFF090EEFCFDBFFDB50E2
:1008C0000EE044D9090EADD902E1151C3BE0390E0A
:1008D000DB2ADBCFE9FF3A0EEDE3DB2AEBD755D875
:1008E00031E1160EDBCFE6FF080EC3D8E552E72450
:1008F0005DD82ED0070EDB50030A1CE0010A14E07D
:10090000030A07E07BD9DBCFEEFF020EDBCFEDFF62
:100910001FD0F5D8196A17AE02D0186819682CD8FC
:10092000BCD819C0EEFF14D0EAD817BE186824D876
:10093000B4D80ED063D9DBCFEFFF0AD07BD905E165
:10094000151C03E1F368F46810D0FCD801E3DB2A3E
:1009500079D947EF00F0010EDBCF14F0020EDBCFA8
:1009600015F014C0F3FF15C0F4FF3B0EE15C02E28A
:10097000E16AE552E16ECBD029D9020EADEF05F068
:1009800061D90800F550DF6E1200200EE66E080EE9
:100990001DEF06F05CEC0DF0E552E552E552F3CFA9
:1009A00014F0F4CF15F00001F31C1200146E156A58
:1009B000D950010F4DD91450EE261550ED221200DA
:1009C000185E000E195AF70E18C0DBFFF80E19C09A
:1009D000DBFF18C0E9FF19C0EAFF1200DBCFF4FF0C
:1009E000F350F45C1200DB50E76E040EE7CFDBFF40
:1009F00012000A0EDBCF14F00B0EDBCF15F00C0E3D
:100A0000DBCF16F00D0EDBCF17F0145015101610BB
:100A100017101200130EEECFDBFF140EEDCFDBFF2D
:100A2000130EDBCF14F0140EDBCF15F00001800E97
:100A300015141200F70EDBCF18F0F80EDBCF19F00B
:100A40001200050EDB50E66ED950130F01D9E552A6
:100A5000E750EE6EED6A12000A0EDBCF06F00B0EC9
:100A6000DBCF07F00C0EDBCF08F00D0EDBCF09F06B
:100A70001200DBCFE6FF150EDBCFE6FF050EDB50E5
:100A8000E552E724E552E7241200DB50CED8010EF0
:100A9000F36E060EF3CFDBFF1200EE50EFCFEAFF4E
:100AA000E96E16C0EEFF17C0EEFF18C0EEFF120091
:100AB000D9CFE6FFDACFE6FFE1CFD9FFE2CFDAFF09
:100AC0001200DFCFE6FFE66A46EC0FF0E552E55292
:100AD000F3501200E76E080EE7CFDBFF1200EECFF7
:100AE00014F0EECF15F0EFCF16F0176A1200050ED6
:100AF000DBCF14F0150EDB50D88014541200010E19
:100B0000DBCF16F0020EDBCF17F0186A1200E552A9
:100B1000E5CFDAFFE7CFD9FF12000A0E14C0DBFFE2
:100B20000B0E15C0DBFF1200D9500A0F28EF06F09C
:100B3000F36E070EF3CFDBFF1200EECF14F0EFCF12
:100B400015F01200010EDB2A020E1200FC0EDBCFA4
:100B5000E6FFFD0EDBCFE6FF1200145E000E155A15
:100B6000F70E14C0DBFFF80E15C0DBFF14C0E9FF61
:100B700015C0EAFF1200DA20EA6EEF2AEECFF6FF88
:100B8000000EEF22EECFF7FFEF22EECFF8FF1200BC
:100B9000040EDBCFE6FF130EDB50E552E75C9ADF75
:100BA000DB5004DF060EDB501200090EDB500A0D8D
:100BB000F350DF24D00FE76E090EE7CFDBFFC0EF65
:100BC00004F0DB50F36E050EEEEF04F0F70EDBCF12
:100BD00014F0F80EDBCF15F01200DFCFE6FFCAEFFE
:100BE00004F028DF030EECDE6FEF05F01CEC00F0E4
:100BF000E552E552E552E55200091200BDDEEE5025
:100C0000EFCFEAFFE96E010E1200130EDB50F36E18
:100C1000040EEEEF04F0040EDB50F36E090EEEEF5F
:100C200004F0DBCFE6FFCAEF04F0E76E050EE7CF76
:100C3000DBFF12008BDFEDEF05F0DBCFE6FF86DF99
:100C4000F6EF05F0D950F90FE96EFF0EBBEF05F096
:0A0C5000E96E000EDA20EA6E1200D1
:060C5A00D08E9D8A9F8AE6
:100C6000F28E190EE66EE66A7C0EE66E17EC0DF05B
:100C7000E552E552E5520E0EE66E040EE66E9B0E50
:100C8000E66E11EC0EF0E552E552E552010EC26E31
:100C90000B0EC16E9268800E946E936AD38CD38AC9
:100CA000D3987E0EE66EFDEC0EF0E552B20EE66EC7
:100CB00018EC0FF0E552B20EE66E9EEC0DF0E55228
:100CC000000EE66EE66AAAEC0EF0E552E552000E62
:100CD000E66EE66A7BEC0EF0E552E552816A010EA3
:100CE0000001886F896B8A6F8B6B846B856B866B59
:100CF000876B84C0E6FF85C0E6FFAAEC0EF0E552E4
:100D0000E55286C0E6FF87C0E6FF7BEC0EF0E552B9
:100D1000E55200018851E8B08280E8A082908A51B3
:100D2000E8B08286E8A0829629EC0BF0010EE66E10
:100D30006EEC0BF0E5520001010EB419FCE1B55167
:100D4000FAE1B46BB56B010EE66E6EEC0BF0E5529A
:100D5000C2C0E6FFC3C0E6FFC2C0E6FFC3C0E6FFF5
:100D6000320E146E1F0E156E166A14C0E6FFE66E84
:100D700016C0E6FF8C0EE66E000EE66E72EC0CF00E
:100D8000176E090EE15E1750800EE66E6EEC0BF0EA
:100D9000E5528C0EE66E000EE66E3CEC0CF0E55271
:100DA000E552C4C0E6FFC5C0E6FF280E146E1F0E54
:100DB000156E166A14C0E6FFE66E16C0E6FFA00EBA
:100DC000E66E000EE66E72EC0CF0176E070EE15E3A
:100DD0001750C00EE66E6EEC0BF0E552A00EE66EFC
:100DE000000EE66E3CEC0CF0E552E552C4C0E6FFA6
:100DF000C5C0E6FFC2C0E6FFC3C0E6FF08D8E552A3
:100E0000E552E55297D7B40EF36EF46A1200D9CFCB
:100E1000E6FFE1CFD9FF0C0EE126DE6ADE6ADE6A6C
:100E2000DD6ADD52DD52040EDB6A050EDB6A060E5A
:100E3000DB6A070EDB6A080EDB6A090EDB6A0A0E44
:100E4000DB6A0B0EDB6AFB0EDBCF14F0FC0EDBCF94
:100E500015F0000E145E020E155AFB0E14C0DBFFD7
:100E6000FC0E15C0DBFF020E086E096AFB0EDBCF1D
:100E70000DF0FC0EDBCF0EF047EC0AF0FB0E06C0C7
:100E8000DBFFFC0E07C0DBFFBEDF080EF3CFDBFF8E
:100E9000090EF4CFDBFF080EDBCF16F0090EDBCF17
:100EA00017F0FD0EDB50165C146EFE0EDB5017586B
:100EB000156E0A0E14C0DBFF0B0E15C0DBFF080E0B
:100EC000DBCF14F0090EDBCF15F0FD0EDBCF16F0F3
:100ED000FE0EDBCF17F017501518E8AE02D0153410
:100EE00004D01450165C1550175834E2DE6ADE6ADE
:100EF000800EDE6E3F0EDD6EDD52DD520A0EDBCF60
:100F000014F00B0EDBCF15F0680E0D6E010E0E6E99
:100F100014C008F015C009F021EC0AF008C014F064
:100F200009C015F0010ED8801456000E155614C0D5
:100F300008F015C009F0A1EC09F0040E07C0DBFFB2
:100F4000050E08C0DBFF060E09C0DBFF070E0AC056
:100F5000DBFF54D0080EDBCF14F0090EDBCF15F009
:100F6000FD0EDBCF16F0FE0EDBCF17F01550171875
:100F7000E8AE02D0173404D01650145C1750155840
:100F800027E20A0EDBCF14F00B0EDBCF15F0680E54
:100F90000D6E010E0E6E14C008F015C009F021ECA4
:100FA0000AF008C014F009C015F0010E1426000E56
:100FB000152214C008F015C009F0A1EC09F007C013
:100FC000DEFF08C0DEFF09C0DEFF0AC0DDFF06D07D
:100FD000DE6ADE6A800EDE6E3F0EDD6EDD52DD52B1
:100FE000040EDB6A050EDB6A800EF36E060EF3CF8D
:100FF000DBFF3F0EF36E070EF3CFDBFFFB0EDBCF05
:1010000014F0FC0EDBCF15F015342DE214509008CF
:10101000010E155428E20001886B896B8A6B8B6B7B
:10102000FB0EDBCF08F0FC0EDBCF09F0A1EC09F0E2
:10103000000EDFCF0CF0010EDBCF0DF0020EDBCF88
:101040000EF0030EDBCF0FF0B4EC09F074EC0AF0F5
:1010500008C084F009C085F0FB0EDBCF08F0FC0E61
:10106000DBCF09F04ED0FB0EDBCF14F0FC0EDBCF54
:1010700015F0D880155004E7700E145CFE0E15585C
:1010800057E2010E0001886F896B8A6F8B6B0868CD
:101090000968FB0EDBCF0DF0FC0EDBCF0EF047EC4A
:1010A0000AF006C014F007C015F006C008F007C02B
:1010B00009F0A1EC09F0000EDFCF0CF0010EDBCF40
:1010C0000DF0020EDBCF0EF0030EDBCF0FF0B4EC11
:1010D00009F074EC0AF008C084F009C085F00868D3
:1010E0000968FB0EDBCF0DF0FC0EDBCF0EF047ECFA
:1010F0000AF006C014F007C015F006C008F007C0DB
:1011000009F0A1EC09F0040EDBCF0CF0050EDBCFEB
:101110000DF0060EDBCF0EF0070EDBCF0FF0B4ECB8
:1011200009F074EC0AF008C086F009C087F049D0D5
:10113000080EDBCF14F0090EDBCF15F0FD0EDBCF70
:1011400016F0FE0EDBCF17F017501518E8AE02D0E0
:10115000153404D01450165C1550175806E2010ED1
:101160000001886F896B8A6B1CD0080EDBCF14F0EE
:10117000090EDBCF15F0FD0EDBCF16F0FE0EDBCF38
:1011800017F015501718E8AE02D0173404D01650D7
:10119000145C175015580CE20001886B896B010E26
:1011A0008A6F8B6B846B020E856F866B876F09D09D
:1011B0000001886B896B8A6B8B6B846B856B866B8C
:1011C000876B0001853508E284510008040E8555BF
:1011D00003E2846B040E856F873508E286510008B0
:1011E000040E875503E2866B040E876F84C0E6FF0A
:1011F00085C0E6FFAAEC0EF0E552E55286C0E6FF98
:1012000087C0E6FF7BEC0EF0E552E5520001885105
:10121000E8B08280E8A082908A51E8B08286E8A097
:1012200082960C0EE15C02E2E16AE552E16EE55263
:10123000E7CFD9FF1200DACFE4FFE2CFDAFFE9CF40
:10124000E4FFEACFE4FFF6CFE4FFF7CFE4FFF3CF0C
:10125000E4FFF4CFE4FFFACFE4FF00EE00F0140E59
:10126000E80403E3EECFE4FFFBD7E652D9CFE6FF75
:10127000E1CFD9FFE6529EAA33D0AE50DF6E9E9AE0
:10128000410EDF5C08E1C0C0C2F0C1C0C3F0000184
:10129000C06BC16B25D0530EDF5C0CE1C0C0C4F045
:1012A000C1C0C5F00001C06BC16B010E0001B46F7D
:1012B000B56B16D0300EDF5C1B6E1C6A1BBE1C6843
:1012C0000A0E086E096AC0C00DF0C1C00EF047ECEE
:1012D0000AF006501B240001C06F07501C20C16F8C
:1012E000E552E552E7CFD9FFE55200EE13F0140EB8
:1012F000E80403E3E5CFEDFFFBD7E5CFFAFFE5CF49
:10130000F4FFE5CFF3FFE5CFF7FFE5CFF6FFE5CF3D
:10131000EAFFE5CFE9FFE5CFDAFF1100D8CFE4FF20
:10132000E0CFE4FFE46EDACFE4FFE652E552E5CF2A
:0E133000DAFFE550E5CFE0FFE5CFD8FF100073
:02133E00019E0E
:1013400008D0019E09AE05D0086C091EE86A092282
:10135000018E09C003F008C002F0136A126A8E0EF3
:10136000046E056ABFEF0AF0016AFBEC0AF013ECA9
:101370000BF001B6A3EF0AF001A205D001B8A3EF6C
:101380000AF0AAEF0AF001AA05D001B0A3EF0AF013
:10139000AAEF0AF001B002D001A802D0B6EF0AF01D
:1013A000056A0F500A24046EE86A05227E0E045E68
:1013B000E86A055A126A136A026A036A0E50090241
:1013C000F4CF03F0F3CF02F00D500902F3501326CF
:1013D000F4500222000E03220E500802F35013268E
:1013E000F4500222000E03220C500902F350122680
:1013F000F4501322000E022203220D500802F35073
:101400001226F4501322000E022203220E5007026D
:10141000F3501226F4501322000E022203220C5025
:101420000802F4501226000E1322022203220D504D
:101430000702F4501226000E132202220322BFEFED
:101440000AF0006A0EAE2AEF0AF00D6C0E1EE86A72
:101450000E22001E09AE32EF0AF0086C091EE86A7F
:101460000922001E30EC0FF009BE42EF0AF000AE78
:10147000000C086C091EE86A0922046C051EE86A63
:101480000522000C00BE39EF0AF00188FF0C09C0EC
:1014900013F008C012F008500D02F4CF07F0F3CF9C
:1014A00006F009500E02F4CF09F0F3CF08F00D0258
:1014B000F3500726F4500822E86A092212500E025F
:1014C000F3500726F4500822E86A09220EAE6DEFA9
:1014D0000AF01250085E1350095A13AE000C0D505A
:1014E000085E0E50095A000C016AFBEC0AF001B6C6
:1014F0007EEF0AF001A20ED001B405D07F0E096E76
:10150000FF0E086E1FD0800E096E086A1BD0096A94
:10151000086A18D001B0FBD78F0E0A60EDD77E0E97
:101520000A64F5D78E0E0A5C05E0D89009320832BD
:101530000A2AF8D701A406D0086C091EE86A092215
:1015400009AEE5D712007F0E0A6EFF0E096E086E17
:10155000076E12007F0E01BEFF0E0A6E02D07F0ED4
:101560000A6E800E096E086A076AF3D701AE04D0CE
:10157000800E0A6E096AF7D70A6A096AF4D703501F
:10158000021013101210F8E005BEF0D703BE0CD005
:1015900004500510EBE0D8901236133602360336AD
:1015A0000406D8A00506F2D70550D4E10428D2E0FD
:1015B00012AE11D07F0E121402E113A00CD0132A28
:1015C000E86A0222032207E3D88003320232133290
:1015D000042A0428BFE00450C9E013C007F002C089
:1015E00008F00334096E04300A6E09320A9E01BE07
:1015F0000A8EA9EF0AF009360A3602E30184017E59
:1016000006E101800A6A096A086A076A12000A2864
:1016100003E0D88009321200D890093202E1018239
:101620001200018612000E360F3602E3018C017E95
:1016300006E101880F6A0E6A0D6A0C6A12000F2813
:1016400003E0D8800E321200D8900E32EAE1018A0F
:02165000120086
:0E165200838E956A838E0001010EC66FF00E26
:10166000951683169598959C959A8398839C839A52
:1016700023D9F00E8316030E8312838C29D9839C01
:1016800021D9F00E8316030E8312838C21D9839CFB
:1016900019D9F00E8316030E8312838C19D9839CFB
:1016A00011D9F00E83168382838C12D9839C280E65
:1016B000E66E14D8E552080EE66E10D8E552010E1B
:1016C000E66E0CD8E552060EE66E08D8E5520F0E0F
:1016D000E66E04D8E5520001C66B1200D9CFE6FFD2
:1016E000E1CFD9FF0001C60501E1F6D80001C651DE
:1016F00001E1F2D88398839C839AF00E8316FE0E44
:10170000DB380F0B0F0B8312838CE2D8839CF00E17
:101710008316FE0EDB500F0B8312838CD9D8839C6B
:10172000E552E7CFD9FF1200D9CFE6FFE1CFD9FFCD
:10173000D3D8839A8388839CF00E8316FE0EDB3801
:101740000F0B0F0B8312838CC3D8839CF00E831670
:10175000FE0EDB500F0B8312838CBAD8839CE552AC
:10176000E7CFD9FF12008398838A839C0F0E9512CE
:10177000F00E8316838CACD80001C6050AE183B64F
:10178000FED7839CA5D8838CA3D8839CF00E951696
:101790001200C65109E183B6FED7839C99D8838C89
:1017A00097D8839CF00E95161200D9CFE6FFE1CFB3
:1017B000D9FFE652DF6A90D88398838A839C0F0E04
:1017C0009512838C85D88338F00BF00BDF6E839CE9
:1017D0007FD8838C7DD80F0E8314DF12839CF00E8C
:1017E00095167F0EDF14E552E552E7CFD9FF1200C0
:1017F000D9CFE6FFE1CFD9FFE652DF6A6DD8838803
:10180000838A839C0F0E9512838C62D88338F00BE9
:10181000F00BDF6E839C5CD8838C5AD80F0E831438
:10182000DF12839CF00E9516DF50E552E552E7CFAC
:10183000D9FF1200D9CFE6FFE1CFD9FFFD0EDBCFF4
:10184000F6FFFE0EDBCFF7FF0800F55011E0FD0EAE
:10185000DBCFF6FFFE0EDBCFF7FF0800F550E66E9C
:1018600063DFE552FD0EDB2AFE0EE8E3DB2AE6D756
:10187000E552E7CFD9FF1200D9CFE6FFE1CFD9FF7C
:10188000FD0EDBCFE9FFFE0EDBCFEAFFEF5010E0ED
:10189000FD0EDBCFE9FFFE0EDBCFEAFFEF50E66E79
:1018A00043DFE552FD0EDB2AFE0EEAE3DB2AE8D732
:1018B000E552E7CFD9FF12000F0EE66E58EC0FF09D
:1018C000E5521200040EE66E58EC0FF0E5521200DD
:1018D0000000000000001200020EE66E58EC0FF04F
:0418E000E5521200BB
:0C18E400D9CFE6FFDACFE6FFE1CFD9FF55
:1018F000E2CFDAFFE652E652E652E652D950F90F4D
:10190000146EFF0EDA20156E020E14C0DBFF030EFC
:1019100015C0DBFF020EDBCFE6FF030EDBCFE6FFD9
:10192000F90EDBCFE6FFFA0EDBCFE6FFFB0EDBCFD7
:10193000E6FFD950FC0FE66EFF0EDA20E66E32ECC1
:1019400000F0146E070EE15C02E2E16AE552E16E1E
:101950001450F3CFDEFFF4CFDDFFFC0EDBCFE9FF49
:10196000FD0EDBCFEAFFEF6ADECF14F0DDCF15F01E
:1019700014C0F3FF15C0F4FF040EE15C02E2E16A5B
:10198000E552E16EE552E5CFDAFFE7CFD9FF12006D
:101990001E0EF66E000EF76E000EF86E00010900C6
:1019A000F550BB6F0900F550BC6F03E1BB6701D078
:1019B0003DD00900F550B66F0900F550B76F09002A
:1019C000F550B86F09000900F550E96E0900F550AF
:1019D000EA6E090009000900F550B96F0900F550D9
:1019E000BA6F09000900F6CFBDF0F7CFBEF0F8CF0F
:1019F000BFF0B6C0F6FFB7C0F7FFB8C0F8FF0001F0
:101A0000B95302E1BA5307E00900F550EE6EB90789
:101A1000F8E2BA07F9D7BDC0F6FFBEC0F7FFBFC0F6
:0E1A2000F8FF0001BB07000EBC5BBFD7120031
:021A2E00D9CF0E
:101A3000E6FFDACFE6FFE1CFD9FFE2CFDAFFAC6A0B
:101A4000AB6AFD0EDBB0AC88DBA202D0AC8CAB8CF9
:101A5000DBB4AC8EDBA602D0AB8801D0AB8ADBB89E
:101A6000AC849E98DBBAAB86DBAC02D09D8A01D0F9
:101A70009D9A9E9ADBAE02D09D8801D09D98FB0E68
:101A8000DB50AF6EFB0EFC0EDBCF15F015C014F073
:101A9000156A1450B06EAC8AAB8E949C948EAC5088
:101AA000100B04E0AC50800B01E1948CE552E5CFC3
:081AB000DAFFE7CFD9FF1200B5
:081AB800D9CFE6FFDACFE6FF0B
:101AC000E1CFD9FFE2CFDAFFFB0EDBCF14F0FC0E43
:101AD000DBCF15F00001800E15141AE1FB0EDBCFF1
:101AE000E9FFFC0EDBCFEAFFEECFF3FFEDCFF4FF13
:101AF000EE2A000EEF22F3CFE9FFF4CFEAFFFD0E4E
:101B0000DBCFEFFFEF50156AF36E15C0F4FF10D076
:101B1000FB0EDB50FE0806E1FD0EDBCFE6FF86EC98
:101B20000FF005D0FD0EDBCFE6FF03EC00F0E55231
:0C1B3000E552E5CFDAFFE7CFD9FF120045
:041B3C00D9CFE6FF18
:101B4000DACFE6FFE1CFD9FFE2CFDAFFE652E65285
:101B5000E652E652F8CF02F0F6CF03F00C0EBA6E62
:101B6000050EF66EF76A300EF86E0800F550010BA0
:101B700003E0010EDB6802D0010EDB6A010EDB50D0
:101B800002E0949201D09396CA94FD0EDB50CB6E86
:101B9000CA8402C0F8FF03C0F6FF040EE15C02E253
:101BA000E16AE552E16EE552E5CFDAFFE7CFD9FF12
:021BB000120021
:0E1BB20006500B02F3CF02F0F4CF03F00C024A
:101BC000F3500326000EF420046E06500D02F3506D
:101BD0000426000EF420056E06500E02F350052672
:101BE00007500B02F3500326F4500422000E052286
:101BF00007500C02F3500426F450052207500D0242
:101C0000F350052608500B02F3500426F450052229
:101C100008500C02F350052609500B02F35005261C
:021C20001200B0
:0E1C2200D9CFE6FFDACFE6FFE1CFD9FFE2CF60
:101C3000DAFFC26AC06AFC0EDB407F0B3C0BC26E4F
:101C4000FC0EDB38F00B300B146EFB0EDB500F0B71
:101C50001410C16EFD0EDB50040DF350380B156EE1
:101C6000FD0EDB380F0B070B146EFD0EDB50800BE7
:101C700014101510C06EFC0EDBAE03D09E9C9D8C24
:101C8000F28CC280E552E5CFDAFFE7CFD9FF120030
:101C9000FE0EE3CFE9FFFF0EE3CFEAFFF36AF46A3B
:101CA000EE5203E0F34AF42AFBD71200FF0EE3CF13
:101CB000F8FFE552FF0EE3CFF7FFE552FF0EE3CF4B
:101CC000F6FFE552E66AE66AE66A0900F55209E0BF
:101CD000FD0EE32A05E1FE0EE32A02E1FF0EE32AF0
:101CE000F4D7FD0EE3CF07F0FE0EE3CF08F0FF0EB2
:061CF000E3CF09F0120031
:0A1CF600D9CFE6FFDACFE6FFE1CF19
:101D0000D9FFE2CFDAFFE652E652FC0EDBCF14F049
:101D1000FD0EDBCF15F0060ED89014361536E8040C
:101D2000FBE114C0DEFF15C0DDFF010EDB50BB6E12
:101D3000DF50E840E8403F0B300B146ECF0EBA1472
:101D40001410BA6EE552E552E552E5CFDAFFE7CF5F
:041D5000D9FF1200A5
:0C1D5400D9CFE6FFDACFE6FFE1CFD9FFE0
:101D6000E2CFDAFFE652E652FC0EDBCF14F0FD0EB6
:101D7000DBCF15F0060ED89014361536E804FBE1DB
:101D800014C0DEFF15C0DDFF010EDB50BE6EDF505C
:101D9000E840E8403F0B300B146ECF0EBD1414101A
:101DA000BD6EE552E552E552E5CFDAFFE7CFD9FF48
:021DB00012001F
:0E1DB200056A046A036A026A200EE76ED89082
:101DC0000636073608360936023603360436053637
:101DD0000B50025C0C5003580D5004580E5005581F
:101DE00009E30B50025E0C50035A0D50045A0E507A
:0A1DF000055A062AE72EE4D7120078
:061DFA00D9CFE6FFDACFAD
:101E0000E6FFE1CFD9FFE2CFDAFFFD0EDB50FB0B9F
:101E1000CA6ECC6A9E92FD0EDBAE02D09D8201D0CE
:101E20009D92CA84E552E5CFDAFFE7CFD9FF1200D1
:101E3000D9CFE6FFDACFE6FFE1CFD9FFE2CFDAFF75
:101E40000C0EBD129494CA94FD0EDB50CB6ECA8466
:101E5000E552E5CFDAFFE7CFD9FF120094941200E4
:101E6000056A046A100EE76ED89008360936043603
:101E700005360D50045C0E50055805E30D50045E08
:0C1E80000E50055A082AE72EF0D7120079
:041E8C00F36AF46A97
:101E9000FF0EE124E96EFF0EE220EA6EED6607D048
:101EA0002F0EEF6404D03A0EEF6001D0F32A120037
:101EB000FF0EE3501D6E480E01D04C0EE76EE72E6C
:101EC000FED7E76AE72EFED71D2EF7D700001200D7
:101ED000000EF36E00EE00F0060E01D81200EA606C
:101EE00002D0EE6AFCD7F350E9601200EE6AFCD72C
:101EF00015EE00F025EE00F0F86A019CC8EC0CF03D
:0C1F000007EC00F02DEC06F0FBD71200FF
:041F0C00FF0EE35091
:101F1000ACBA04D0AF6AAB8EAC8A949CACA2FED7AC
:081F2000AD6EF36EF46A1200CD
:081F280053706565643A202541
:0C1F30006900416E676C653A202569006D
:041F3C0030313233DB
:0D1F400034353637383961626364656600F8
:020000040030CA
:0100010008F6
:0100020019E4
:010003001EDE
:010006008178
:00000001FF
