:020000040000FA
:0600000089EF03F012007D
:020006000000F8
:060008008FEF01F0120071
:02000E00C250DE
:08001000020B01E0010E1200D9
:0600180096EF01F012005A
:02001E000E0EC4
:10002000E66E040EE66E9B0EE66E84EC02F0E55280
:10003000E552E552010EC26E0B0EC16E9268946AD3
:10004000936A7E0EE66E19EC03F0E552B20EE66E90
:1000500034EC03F0E552B20EE66E49EC02F0E552E4
:10006000000EE66EE66AEAEC02F0E552E552000E9A
:10007000E66EE66ABBEC02F0E552E552816A010EDB
:100080000001886F896B8A6F8B6B846B856B866BC5
:10009000876B84C0E6FF85C0E6FFEAEC02F0E5521C
:1000A000E55286C0E6FF87C0E6FFBBEC02F0E552F2
:1000B000E55200018851E8B08280E8A082908A5120
:1000C000E8B08286E8A08296970EE66E4CEC03F0CC
:1000D000E552A0EC03F007EC00F00009FCE197EC1E
:1000E00003F0F3CF80F0F4CF81F09F0EE66E4CEC7E
:1000F00003F0E552A0EC03F007EC00F00009FCE18E
:1001000097EC03F0F3CF82F0F4CF83F0F3CFE6FF68
:10011000F4CFE6FF80C0E6FF81C0E6FF05D8E552D8
:10012000E552E552E552D0D7D9CFE6FFE1CFD9FF6E
:10013000020EE126FB0EDBCF14F0FC0EDBCF15F038
:10014000000E145E020E155AFB0E14C0DBFFFC0EEF
:1001500015C0DBFFFB0EDBCF14F0FC0EDBCF15F080
:10016000153414E214504B08000E15540FE2000130
:10017000886B896B8A6B8B6BFB0EDBCF14F0FC0EEC
:10018000DBCF15F0D8901436153624D0FB0EDBCF1C
:1001900014F0FC0EDBCF15F0D880155004E7B50E37
:1001A000145CFF0E15582BE2010E0001886F896B5D
:1001B0008A6F8B6BFB0EDBCF14F0FC0EDBCF15F0E0
:1001C000146C151E000E1522010ED890143615362B
:1001D000E806FBE1FF0E1426030E15220D680E6ED5
:1001E00014C008F015C009F0A7EC01F008C014F025
:1001F00009C015F008C0DEFF09C0DDFF2DD0FD0EDF
:10020000DBCF14F0FE0EDBCF15F0000E145E020EF5
:10021000155A153405E214503208000E155412E335
:10022000FD0EDBCF14F0FE0EDBCF15F0000E145EDA
:10023000020E155AD880155004E7CE0E145CFF0E3E
:10024000155803E2010EDE6E01D0DE6ADD6A0001A0
:10025000886B896B8A6B8B6BFD0EDBCF08F0FE0E13
:10026000DBCF09F0DECF0DF0DDCF0EF0CDEC01F0ED
:1002700006C084F007C085F0FD0EDBCF14F0FE0E43
:10028000DBCF15F0FF0ED8801456030E155614C0A0
:1002900008F015C009F0DECF0DF0DDCF0EF0CDEC8B
:1002A00001F006C086F007C087F00001853508E23E
:1002B0008451FF08030E855503E28469030E856FA0
:1002C000873508E28651FF08030E875503E28669E9
:1002D000030E876F84C0E6FF85C0E6FFEAEC02F0FC
:1002E000E552E55286C0E6FF87C0E6FFBBEC02F0B0
:1002F000E552E55200018851E8B08280E8A0829082
:100300008A51E8B08286E8A08296020EE15C02E2A1
:10031000E16AE552E16EE552E7CFD9FF1200DACF8C
:10032000E4FFE652E552E5CFDAFF1100D8CFE4FF53
:10033000E0CFE4FFE46EDACFE4FFE652E552E5CF2A
:0E034000DAFFE550E5CFE0FFE5CFD8FF100073
:02034E00006A43
:100350000EAEB0EF01F00D6C0E1EE86A0E22001E0C
:1003600009AEB8EF01F0086C091EE86A0922001E08
:1003700063EC03F009BEC8EF01F000AE000C086C9E
:10038000091EE86A0922046C051EE86A0522000CB1
:1003900000BEBFEF01F00188FF0C09C013F008C0D8
:1003A00012F008500D02F4CF07F0F3CF06F0095019
:1003B0000E02F4CF09F0F3CF08F00D02F350072638
:1003C000F4500822E86A092212500E02F350072660
:1003D000F4500822E86A09220EAEF3EF01F0125041
:1003E000085E1350095A13AE000C0D50085E0E50F3
:0403F000095A000C9A
:0C03F400060EF66E000EF76E000EF86E9E
:1004000000010900F550916F0900F550926F03E16A
:10041000916701D03DD00900F5508C6F0900F5506F
:100420008D6F0900F5508E6F09000900F550E96ED7
:100430000900F550EA6E090009000900F5508F6FB8
:100440000900F550906F09000900F6CF93F0F7CF3F
:1004500094F0F8CF95F08CC0F6FF8DC0F7FF8EC0FA
:10046000F8FF00018F5302E1905307E00900F550B7
:10047000EE6E8F07F8E29007F9D793C0F6FF94C0AD
:10048000F7FF95C0F8FF00019107000E925BBFD700
:02049000120058
:0E049200D9CFE6FFDACFE6FFE1CFD9FFE2CF08
:1004A000DAFFE652E652E652E652F8CF02F0F6CF15
:1004B00003F00C0EBA6E050EF66EF76A300EF86E8B
:1004C0000800F550010B03E0010EDB6802D0010EBD
:1004D000DB6A010EDB5002E0949201D09396CA943D
:1004E000FD0EDB50CB6ECA8402C0F8FF03C0F6FFDE
:1004F000040EE15C02E2E16AE552E16EE552E5CF0D
:08050000DAFFE7CFD9FF12007A
:08050800D9CFE6FFDACFE6FFD0
:10051000E1CFD9FFE2CFDAFFC26AC06AFC0EDB404E
:100520007F0B3C0BC26EFC0EDB38F00B300B146EF5
:10053000FB0EDB500F0B1410C16EFD0EDB50040DD3
:10054000F350380B156EFD0EDB380F0B070B146ED6
:10055000FD0EDB50800B14101510C06EFC0EDBAED0
:1005600003D09E9C9D8CF28CC280E552E5CFDAFFD1
:06057000E7CFD9FF1200E5
:0A057600D9CFE6FFDACFE6FFE1CFB0
:10058000D9FFE2CFDAFFE652E652FC0EDBCF14F0E1
:10059000FD0EDBCF15F0060ED89014361536E804A4
:1005A000FBE114C0DEFF15C0DDFF010EDB50BB6EAA
:1005B000DF50E840E8403F0B300B146ECF0EBA140A
:1005C0001410BA6EE552E552E552E5CFDAFFE7CFF7
:0405D000D9FF12003D
:0C05D400D9CFE6FFDACFE6FFE1CFD9FF78
:1005E000E2CFDAFFE652E652FC0EDBCF14F0FD0E4E
:1005F000DBCF15F0060ED89014361536E804FBE173
:1006000014C0DEFF15C0DDFF010EDB50BE6EDF50F3
:10061000E840E8403F0B300B146ECF0EBD141410B1
:10062000BD6EE552E552E552E5CFDAFFE7CFD9FFDF
:020630001200B6
:0E063200D9CFE6FFDACFE6FFE1CFD9FFE2CF66
:10064000DAFFFD0EDB50FB0BCA6ECC6A9E92FD0EEC
:10065000DBAE02D09D8201D09D92CA84E552E5CFE7
:08066000DAFFE7CFD9FF120019
:08066800D9CFE6FFDACFE6FF6F
:10067000E1CFD9FFE2CFDAFF0C0EBD129494CA94F9
:10068000FD0EDB50CB6ECA84E552E5CFDAFFE7CF33
:08069000D9FF1200949412003E
:08069800D9CFE6FFDACFE6FF3F
:1006A000E1CFD9FFE2CFDAFFC30EC214146EFD0E04
:1006B000DB407F0B3C0B1410C26EE552E5CFDAFF36
:0606C000E7CFD9FF120094
:0A06C600056A046A100EE76ED89072
:1006D00008360936043605360D50045C0E500558B0
:1006E00005E30D50045E0E50055A082AE72EF0D798
:0206F0001200F6
:0E06F200000EF36E00EE00F0060E01D81200AE
:10070000EA6002D0EE6AFCD7F350E9601200EE6AAC
:02071000FCD714
:0E07120015EE00F025EE00F0F86A019CFAECFE
:0E07200001F0A2EC03F00FEC00F0FBD712008A
:02072E00C450B5
:10073000176E166AC3501610F36E17C0F4FF12003E
:04074000C28212005F
:020744001200A1
:020000040030CA
:0100010008F6
:0100020019E4
:010003001EDE
:010006008178
:00000001FF
