:020000040000FA
:0600000046EF03F01200C0
:020006000000F8
:060008004CEF01F01200B4
:02000E00C250DE
:08001000020B01E0010E1200D9
:0600180053EF01F012009D
:02001E000E0EC4
:10002000E66E040EE66E9B0EE66E41EC02F0E552C3
:10003000E552E552010EC26E0B0EC16E9268946AD3
:10004000936A7E0EE66ED6EC02F0E552B20EE66ED4
:10005000F1EC02F0E552B20EE66E06EC02F0E5526B
:10006000000EE66EE66AA7EC02F0E552E552000EDD
:10007000E66EE66A78EC02F0E552E552816A010E1E
:100080000001886F896B8A6F8B6B846B856B866BC5
:10009000876B84C0E6FF85C0E6FFA7EC02F0E5525F
:1000A000E55286C0E6FF87C0E6FF78EC02F0E55235
:1000B000E55200018851E8B08286E8A082968A5114
:1000C000E8B08280E8A08290970EE66E09EC03F01B
:1000D000E5525DEC03F007EC00F00009FCE154ECA4
:1000E00003F0F3CF80F0F4CF81F09F0EE66E09ECC1
:1000F00003F0E5525DEC03F007EC00F00009FCE1D1
:1001000054EC03F0F3CF82F0F4CF83F0F3CFE6FFAB
:10011000F4CFE6FF80C0E6FF81C0E6FF05D8E552D8
:10012000E552E552E552D0D7D9CFE6FFE1CFD9FF6E
:10013000020EE126FB0EDBCF14F0FC0EDBCF15F038
:10014000000E145E020E155AFB0E14C0DBFFFC0EEF
:1001500015C0DBFFFB0EDBCF14F0FC0EDBCF15F080
:10016000153415E214506408000E155410E2010E07
:100170000001886F896B8A6F8B6BFB0EDBCF14F0ED
:10018000FC0EDBCF15F0D8901436153623D0FB0EBD
:10019000DBCF14F0FC0EDBCF15F0D890155004E641
:1001A000640E145C000E155829E20001886B896BFF
:1001B0008A6B8B6BFB0EDBCF14F0FC0EDBCF15F0E4
:1001C000146C151E000E1522010ED890143615362B
:1001D000E806FBE1FF0E1426030E15220D680E6ED5
:1001E00014C008F015C009F064EC01F008C014F068
:1001F00009C015F008C0DEFF09C0DDFFFD0EDBCF32
:1002000008F0FE0EDBCF09F0DECF0DF0DDCF0EF0F3
:100210008AEC01F006C084F007C085F0FD0EDBCF4C
:1002200014F0FE0EDBCF15F0FF0ED8801456030E2F
:10023000155614C008F015C009F0DECF0DF0DDCF63
:100240000EF08AEC01F006C086F007C087F084C08B
:10025000E6FF85C0E6FFA7EC02F0E552E55286C056
:10026000E6FF87C0E6FF78EC02F0E552E5520001B8
:100270008851E8B08286E8A082968A51E8B08280F0
:10028000E8A08290020EE15C02E2E16AE552E16ED2
:10029000E552E7CFD9FF1200DACFE4FFE652E5528C
:1002A000E5CFDAFF1100D8CFE4FFE0CFE4FFE46E42
:1002B000DACFE4FFE652E552E5CFDAFFE550E5CFCD
:0802C000E0FFE5CFD8FF1000BC
:0802C800006A0EAE6DEF01F0BB
:1002D0000D6C0E1EE86A0E22001E09AE75EF01F0CD
:1002E000086C091EE86A0922001E20EC03F009BE12
:1002F00085EF01F000AE000C086C091EE86A0922C7
:10030000046C051EE86A0522000C00BE7CEF01F0BB
:100310000188FF0C09C013F008C012F008500D024C
:10032000F4CF07F0F3CF06F009500E02F4CF09F036
:10033000F3CF08F00D02F3500726F4500822E86AC4
:10034000092212500E02F3500726F4500822E86AE0
:1003500009220EAEB0EF01F01250085E1350095A98
:0E03600013AE000C0D50085E0E50095A000C32
:02036E00060E79
:10037000F66E000EF76E000EF86E00010900F550E3
:10038000916F0900F550926F03E1916701D03DD064
:100390000900F5508C6F0900F5508D6F0900F5507C
:1003A0008E6F09000900F550E96E0900F550EA6EFC
:1003B000090009000900F5508F6F0900F550906F92
:1003C00009000900F6CF93F0F7CF94F0F8CF95F03D
:1003D0008CC0F6FF8DC0F7FF8EC0F8FF00018F5371
:1003E00002E1905307E00900F550EE6E8F07F8E246
:1003F0009007F9D793C0F6FF94C0F7FF95C0F8FFB8
:0C04000000019107000E925BBFD71200B4
:04040C00D9CFE6FF5F
:10041000DACFE6FFE1CFD9FFE2CFDAFFE652E652CC
:10042000E652E652F8CF02F0F6CF03F00C0EBA6EA9
:10043000050EF66EF76A300EF86E0800F550010BE7
:1004400003E0010EDB6802D0010EDB6A010EDB5017
:1004500002E0949201D09396CA94FD0EDB50CB6ECD
:10046000CA8402C0F8FF03C0F6FF040EE15C02E29A
:10047000E16AE552E16EE552E5CFDAFFE7CFD9FF59
:02048000120068
:0E048200D9CFE6FFDACFE6FFE1CFD9FFE2CF18
:10049000DAFFC26AC06AFC0EDB407F0B3C0BC26E07
:1004A000FC0EDB38F00B300B146EFB0EDB500F0B29
:1004B0001410C16EFD0EDB50040DF350380B156E99
:1004C000FD0EDB380F0B070B146EFD0EDB50800B9F
:1004D00014101510C06EFC0EDBAE03D09E9C9D8CDC
:1004E000F28CC280E552E5CFDAFFE7CFD9FF1200E8
:1004F000D9CFE6FFDACFE6FFE1CFD9FFE2CFDAFFCF
:10050000E652E652FC0EDBCF14F0FD0EDBCF15F009
:10051000060ED89014361536E804FBE114C0DEFF51
:1005200015C0DDFF010EDB50BB6EDF50E840E84038
:100530003F0B300B146ECF0EBA141410BA6EE55286
:0E054000E552E552E5CFDAFFE7CFD9FF120012
:02054E00D9CF03
:10055000E6FFDACFE6FFE1CFD9FFE2CFDAFFE652DE
:10056000E652FC0EDBCF14F0FD0EDBCF15F0060ECD
:10057000D89014361536E804FBE114C0DEFF15C030
:10058000DDFF010EDB50BE6EDF50E840E8403F0B60
:10059000300B146ECF0EBD141410BD6EE552E55233
:0C05A000E552E5CFDAFFE7CFD9FF1200EB
:0405AC00D9CFE6FFBE
:1005B000DACFE6FFE1CFD9FFE2CFDAFFFD0EDB5065
:1005C000FB0BCA6ECC6A9E92FD0EDBAE02D09D8202
:1005D00001D09D92CA84E552E5CFDAFFE7CFD9FF7B
:0205E000120007
:0E05E200D9CFE6FFDACFE6FFE1CFD9FFE2CFB7
:1005F000DAFF0C0EBD129494CA94FD0EDB50CB6E44
:10060000CA84E552E5CFDAFFE7CFD9FF1200949410
:020610001200D6
:0E061200D9CFE6FFDACFE6FFE1CFD9FFE2CF86
:10062000DAFFC30EC214146EFD0EDB407F0B3C0BD1
:100630001410C26EE552E5CFDAFFE7CFD9FF120002
:10064000056A046A100EE76ED8900836093604363B
:1006500005360D50045C0E50055805E30D50045E40
:0C0660000E50055A082AE72EF0D71200B1
:04066C00000EF36E1B
:1006700000EE00F0060E01D81200EA6002D0EE6A29
:0C068000FCD7F350E9601200EE6AFCD7D2
:04068C0015EE00F077
:1006900025EE00F0F86A019CB7EC01F05FEC03F086
:0806A0000FEC00F0FBD7120083
:0806A800C450176E166AC3501E
:0A06B0001610F36E17C0F4FF1200DD
:0406BA00C2821200E6
:0206BE00120028
:020000040030CA
:0100010004FA
:0100020019E4
:010003001EDE
:010006008178
:00000001FF
